:100000000C945C000C9479000C9479000C947900A9
:100010000C9479000C9479000C9479000C9479007C
:100020000C9479000C9479000C9479000C9479006C
:100030000C9479000C9479000C9479000C9479005C
:100040000C9444010C9479000C9479000C94790080
:100050000C9479000C9479000C9479000C9479003C
:100060000C9479000C947900000000080002010053
:100070000003040700000000000000000000000072
:10008000250028002B0000000000240027002A0083
:10009000040404040404040402020202020203032E
:1000A0000303030301020408102040800102040836
:1000B000102001020408102011241FBECFEFD8E049
:1000C000DEBFCDBF11E0A0E0B1E0E4EBF4E002C0A0
:1000D00005900D92A830B107D9F721E0A8E0B1E072
:1000E00001C01D92A431B207E1F70E948E010C9469
:1000F00058020C94000090E0FC01E859FF4F349145
:10010000FC01EC55FF4F2491FC01E057FF4FE491B7
:10011000EE2309F43BC0332339F1333091F038F446
:100120003130A9F0323001F584B58F7D12C03730FF
:1001300091F03830A1F03430B9F4809180008F7D97
:1001400003C0809180008F77809380000DC084B5BC
:100150008F7784BD09C08091B0008F7703C08091F4
:10016000B0008F7D8093B000F0E0EE0FFF1FE458E9
:10017000FF4FA591B4918FB7F894EC91611103C032
:1001800020952E2301C02E2B2C938FBF08953FB7AF
:10019000F89480910D0190910E01A0910F01B09102
:1001A000100126B5A89B05C02F3F19F00196A11D8F
:1001B000B11D3FBFBA2FA92F982F8827820F911DFD
:1001C000A11DB11DBC01CD0142E0660F771F881F44
:1001D000991F4A95D1F708958F929F92AF92BF923F
:1001E000CF92DF92EF92FF920E94C7004B015C0119
:1001F00084EFC82EDD24D394E12CF12C0E94C7009B
:10020000DC01CB0188199909AA09BB09883E9340F2
:10021000A105B10558F021E0C21AD108E108F108A2
:1002200088EE880E83E0981EA11CB11CC114D10475
:10023000E104F10419F7FF90EF90DF90CF90BF90A9
:10024000AF909F908F90089560E087E00E947B00C0
:1002500060E086E00E947B0060E085E00E947B0019
:1002600060E084E00E947B0060E083E00E947B000D
:1002700060E082E00E947B0060E081E00E947B0001
:1002800060E080E00C947B001F920F920FB60F92FB
:1002900011242F933F938F939F93AF93BF9380919C
:1002A000090190910A01A0910B01B0910C013091CC
:1002B000080123E0230F2D3720F40196A11DB11D65
:1002C00005C026E8230F0296A11DB11D2093080149
:1002D0008093090190930A01A0930B01B0930C0144
:1002E00080910D0190910E01A0910F01B09110012C
:1002F0000196A11DB11D80930D0190930E01A09355
:100300000F01B0931001BF91AF919F918F913F91D9
:100310002F910F900FBE0F901F901895789484B571
:10032000826084BD84B5816084BD85B5826085BDF1
:1003300085B5816085BD80916E00816080936E007F
:100340001092810080918100826080938100809171
:100350008100816080938100809180008160809322
:1003600080008091B10084608093B1008091B000E2
:1003700081608093B00080917A00846080937A00DD
:1003800080917A00826080937A0080917A00816007
:1003900080937A0080917A00806880937A0010922E
:1003A000C10087E080931101109213011092120195
:1003B00080911201909113012091110130E02817D2
:1003C00039070CF433C0FC01E050FF4F808190E00E
:1003D000FC01EC55FF4F2491FC01E057FF4F849145
:1003E000882399F090E0880F991FFC01EA57FF4F8E
:1003F000A591B491FC01E458FF4F859194918FB77A
:10040000F894EC91E22BEC938FBFC0911201D09144
:100410001301FE01E050FF4F60E080810E947B00ED
:100420002196D0931301C0931201C2CF00E010E0D7
:100430001092130110921201C0911201D091130178
:100440008091110190E08C179D077CF0FE01E05037
:10045000FF4F61E080810E947B000E94EC002196AA
:10046000D0931301C0931201E7CF0E942401809121
:1004700012019091130197FD13C0FC01E050FF4F52
:1004800061E080810E947B000E94EC00809112015B
:100490009091130101979093130180931201E7CF7C
:1004A0000E9424010115110519F20E940000C0CF1D
:0404B000F894FFCFEE
:0804B400070605040302010024
:00000001FF
