:100000000C945D000C9485000C9485000C94850084
:100010000C9485000C9485000C9485000C9485004C
:100020000C9485000C9485000C9485000C9485003C
:100030000C9485000C9485000C9485000C9485002C
:100040000C9466040C9485000C9434040C940E04F7
:100050000C9485000C9485000C9485000C9485000C
:100060000C9485000C94850000000008000201003B
:100070000003040700000000000000000000000072
:10008000250028002B0000000000240027002A0083
:10009000040404040404040402020202020203032E
:1000A0000303030301020408102040800102040836
:1000B00010200102040810207D0511241FBECFEF7F
:1000C000D8E0DEBFCDBF11E0A0E0B1E0E2EBFBE0A5
:1000D00002C005900D92A431B107D9F721E0A4E147
:1000E000B1E001C01D92AC3BB207E1F710E0CDE5F5
:1000F000D0E004C02197FE010E94CC05CC35D10789
:10010000C9F70E94B0040C94D7050C94000090E04D
:10011000FC01EC55FF4F2491FC01E057FF4F849107
:10012000882399F090E0880F991FFC01EA57FF4F50
:10013000A591B491FC01E458FF4F859194918FB73C
:10014000F894EC91E22BEC938FBF0895CF92DF925D
:10015000EF92FF920F931F93CF93DF936C017A017D
:100160008B01C0E0D0E0CE15DF0589F0D8016D919C
:100170008D01D601ED91FC910190F081E02DC60139
:100180000995892B11F47E0102C02196ECCFC7019D
:10019000DF91CF911F910F91FF90EF90DF90CF9063
:1001A0000895FC01918D828D981761F0828DDF0199
:1001B000A80FB11D5D968C91928D9F5F9F73928F5A
:1001C00090E008958FEF9FEF0895FC01918D828D4F
:1001D000981731F0828DE80FF11D858D90E008951C
:1001E0008FEF9FEF0895FC01918D228D892F90E074
:1001F000805C9F4F821B91098F73992708958FE12F
:1002000091E00E94F30021E0892B09F420E0822F85
:100210000895FC01848DDF01A80FB11DA35ABF4FC3
:100220002C91848D90E001968F739927848FA689F5
:10023000B7892C93A089B1898C9180648C93938D1C
:10024000848D981306C00288F389E02D80818F7D0C
:1002500080830895EF92FF920F931F93CF93DF93C4
:10026000EC0181E0888F9B8D8C8D981305C0E88907
:10027000F989808185FD24C0F62E0B8D10E00F5F7B
:100280001F4F0F731127E02E8C8DE8120CC00FB694
:1002900007FCFACFE889F989808185FFF5CFCE0187
:1002A0000E940901F1CF8B8DFE01E80FF11DE35A89
:1002B000FF4FF0820B8FEA89FB898081806207C043
:1002C000EE89FF896083E889F98980818064808371
:1002D00081E090E0DF91CF911F910F91FF90EF901F
:1002E0000895CF93DF93EC01888D8823C9F0EA89C4
:1002F000FB89808185FD05C0A889B9898C9186FD1F
:100300000FC00FB607FCF5CF808185FFF2CFA8891B
:10031000B9898C9185FFEDCFCE010E940901E7CF0D
:10032000DF91CF91089580E090E0892B29F00E9421
:10033000FF0081110C940000089590E0FC01E85941
:10034000FF4F3491FC01EC55FF4F2491FC01E05725
:10035000FF4FE491EE2309F43BC0332339F13330EE
:1003600091F038F43130A9F0323001F584B58F7D49
:1003700012C0373091F03830A1F03430B9F48091A8
:1003800080008F7D03C0809180008F7780938000F4
:100390000DC084B58F7784BD09C08091B0008F7780
:1003A00003C08091B0008F7D8093B000F0E0EE0F2D
:1003B000FF1FE458FF4FA591B4918FB7F894EC91CB
:1003C000611103C020952E2301C02E2B2C938FBFCB
:1003D00008953FB7F89480911B0190911C01A09162
:1003E0001D01B0911E0126B5A89B05C02F3F19F035
:1003F0000196A11DB11D3FBFBA2FA92F982F8827A5
:10040000820F911DA11DB11DBC01CD0142E0660FFF
:10041000771F881F991F4A95D1F708958F929F9251
:10042000AF92BF92CF92DF92EF92FF920E94E901CA
:100430004B015C0184EFC82EDD24D394E12CF12C18
:100440000E94E901DC01CB0188199909AA09BB09BD
:10045000883E9340A105B10558F021E0C21AD108A9
:10046000E108F10888EE880E83E0981EA11CB11CFB
:10047000C114D104E104F10419F7FF90EF90DF906B
:10048000CF90BF90AF909F908F900895EF92FF9282
:100490000F931F93CF93DF93E82EF62EC7E0D0E0A3
:1004A000042F10E098010C2E02C0359527950A9470
:1004B000E2F7B901617077278E2D0E949D0161E0FE
:1004C0008F2D0E949D0160E08F2D0E949D0121973C
:1004D00048F7DF91CF911F910F91FF90EF90089512
:1004E000BF92CF92DF92EF92FF920F931F93CF9321
:1004F000DF93182F062FB42E88E090E0C12CD12C6A
:100500007601C394CC0CDD1CEE1CFF1C0197D1F7C7
:10051000D0921501C0921401C7E0D0E021E030E094
:10052000C12CD12C7601C394C217D3073CF0CC0C5C
:10053000DD1CEE1CFF1C2F5F3F4FF6CF60E0812FCC
:100540000E949D01A60141505109602F8B2D0E94F0
:10055000460261E0812F0E949D010E940E022197B8
:10056000E8F6DF91CF911F910F91FF90EF90DF9010
:10057000CF90BF900895DF92EF92FF920F931F9359
:10058000CF93DF93F82ED62EE42EE8E0F0E001E0E2
:1005900010E020E030E0000F111F221F331F3197C1
:1005A000D1F7015011091093150100931401C8E00F
:1005B000D0E00091140110911501000F111F10934C
:1005C00015010093140160E08F2D0E949D01402FC2
:1005D0006D2D8E2D0E94460261E08F2D0E949D019F
:1005E0000E940E02219729F7DF91CF911F910F9161
:1005F000FF90EF90DF900895DF92EF92FF920F93BC
:100600001F93CF93DF93F82ED62EE42E1092150170
:100610001092140108E010E0C0911401D09115016E
:10062000CC0FDD1FC160D0931501C093140160E0B1
:100630008F2D0E949D014C2F6D2D8E2D0E94460204
:1006400061E08F2D0E949D010E940E020150110950
:1006500019F7DF91CF911F910F91FF90EF90DF90ED
:1006600008958F929F92AF92BF920F931F93CF9353
:10067000DF93CDB7DEB7A1970FB6F894DEBF0FBEFC
:10068000CDBF19A2423008F44AE08E010F5D1F4F22
:10069000842E912CA12CB12CA50194010E94AA05B5
:1006A000E62FB901CA0101501109EA3014F4E05DE6
:1006B00001C0E95CD801EC93232B242B252B61F797
:1006C0000115110571F0F80101900020E9F731974B
:1006D000AF01401B510BB8018FE191E00E94A600D1
:1006E00002C080E090E0A1960FB6F894DEBF0FBE86
:1006F000CDBFDF91CF911F910F91BF90AF909F9091
:100700008F900895CF92DF92EF92FF92CF93DF9375
:100710006C01990FEE08FF08F7FE1AC0E0911F0167
:10072000F09120010190F081E02D6DE28FE191E0E8
:100730000995EC0166277727CB016C197D098E0995
:100740009F094AE00E9431037C01EC0EFD1E06C0A9
:100750004AE0C701B6010E9431037C0142E050E04B
:1007600060E171E08FE191E00E94A6008E0D9F1D77
:10077000DF91CF91FF90EF90DF90CF900895BF92DF
:10078000CF92DF92EF92FF920F931F93CF93DF935D
:10079000182F062FB42E1092150110921401C7E0E5
:1007A000D0E021E030E0C12CD12C7601C394C217F7
:1007B000D3073CF0CC0CDD1CEE1CFF1C2F5F3F4F21
:1007C000F6CFC6010E948203809114019091150119
:1007D0008C299D2990931501809314010E94820316
:1007E00060E0812F0E949D0140911401602F8B2DAC
:1007F0000E94460261E0812F0E949D010E940E022C
:10080000219778F6DF91CF911F910F91FF90EF9094
:10081000DF90CF90BF9008950E94D2051F920F9253
:100820000FB60F9211242F933F934F935F936F93C3
:100830007F938F939F93AF93BF93EF93FF938FE13A
:1008400091E00E940901FF91EF91BF91AF919F91BB
:100850008F917F916F915F914F913F912F910F9069
:100860000FBE0F901F9018951F920F920FB60F9208
:1008700011242F938F939F93EF93FF93E0912F0178
:10088000F09130018081E0913501F091360182FDD7
:1008900012C09081809138018F5F8F732091390150
:1008A000821751F0E0913801F0E0E15EFE4F958F44
:1008B0008093380101C08081FF91EF919F918F91CA
:1008C0002F910F900FBE0F901F9018951F920F92AF
:1008D0000FB60F9211242F933F938F939F93AF9353
:1008E000BF938091170190911801A0911901B091C7
:1008F0001A013091160123E0230F2D3720F40196C1
:10090000A11DB11D05C026E8230F0296A11DB11D32
:10091000209316018093170190931801A093190159
:10092000B0931A0180911B0190911C01A0911D01AF
:10093000B0911E010196A11DB11D80931B019093E2
:100940001C01A0931D01B0931E01BF91AF919F9117
:100950008F913F912F910F900FBE0F901F90189580
:10096000789484B5826084BD84B5816084BD85B58A
:10097000826085BD85B5816085BD80916E00816096
:1009800080936E001092810080918100826080933C
:10099000810080918100816080938100809180003E
:1009A0008160809380008091B10084608093B10069
:1009B0008091B00081608093B00080917A00846063
:1009C00080937A0080917A00826080937A0080918F
:1009D0007A00816080937A0080917A0080688093A9
:1009E0007A001092C100E0912F01F091300182E075
:1009F0008083E0912B01F0912C011082E0912D0178
:100A0000F0912E018FEC808310923701E091330139
:100A1000F091340186E08083E0913101F091320160
:100A2000808180618083E0913101F0913201808189
:100A300088608083E0913101F0913201808180688B
:100A40008083E0913101F091320180818F7D80833C
:100A500088E00E9487008DE00E9487008BE00E9462
:100A6000870087E00E9487008CE00E9487008AE070
:100A70000E9487004BE050E06DE070E088E090E07D
:100A80000E94FC024AE050E06CE070E087E090E0F9
:100A90000E94FC024BE050E06DE070E088E090E0E6
:100AA0000E94BB024AE050E06CE070E087E090E01A
:100AB0000E94BB024AE050E06CE070E087E090E00A
:100AC0000E94BF034BE050E06DE070E088E090E0F2
:100AD0000E94BF034AE050E06CE070E087E090E0E5
:100AE0000E9470024BE050E06DE070E088E090E022
:100AF0000E9470020E949301BDCFEFE1F1E01382EA
:100B0000128288EE93E0A0E0B0E084839583A68310
:100B1000B78384E091E09183808385EC90E09587B2
:100B2000848784EC90E09787868780EC90E0918BB7
:100B3000808B81EC90E0938B828B82EC90E0958BA4
:100B4000848B86EC90E0978B868B118E128E138EA1
:100B5000148E0895A1E21A2EAA1BBB1BFD010DC025
:100B6000AA1FBB1FEE1FFF1FA217B307E407F5075D
:100B700020F0A21BB30BE40BF50B661F771F881F39
:100B8000991F1A9469F760957095809590959B01CF
:100B9000AC01BD01CF010895EE0FFF1F0590F49148
:100BA000E02D099481E090E0F8940C94D705F89436
:020BB000FFCF75
:100BB200000000002A01A600F300D100E500710147
:040BC2000D0A000018
:00000001FF
