:100000000C945D000C9485000C9485000C94850084
:100010000C9485000C9485000C9485000C9485004C
:100020000C9485000C9485000C9485000C94680356
:100030000C9485000C9485000C9485000C9485002C
:100040000C941E030C9485000C94EC020C94C602D4
:100050000C9485000C9485000C9485000C9485000C
:100060000C9485000C94850000000008000201003B
:100070000003040700000000000000000000000072
:10008000250028002B0000000000240027002A0083
:10009000040404040404040402020202020203032E
:1000A0000303030301020408102040800102040836
:1000B0001020010204081020290411241FBECFEFD4
:1000C000D8E0DEBFCDBF21E0A8E1B1E001C01D92C4
:1000D000AB3EB207E1F711E0A0E0B1E0EAEDFCE0F1
:1000E00002C005900D92A831B107D9F710E0CDE517
:1000F000D0E004C02197FE010E94FD05CC35D10758
:10010000C9F70E9487040C946B060C940000CF92F0
:10011000DF92EF92FF92DC01A03282E0B8070CF090
:100120003EC0B7FD06C0A53BB1052CF0A4EBB0E086
:1001300002C0A0E0B0E08091E90128E830E0690168
:10014000C81AD10887FDD394CC0CDD1CCC0CDD1C67
:100150000D2C000CEE08FF088091EA0128E532E042
:10016000281B310987FD3395220F331F220F331FC0
:10017000A901330F660B770B9A01AB012C193D09CE
:100180004E095F090E94320624EB30E040E050E067
:100190000E940806C20ED31EE41EF51ED6019091E1
:1001A000E8019C3098F58091E90148E850E0481B4F
:1001B000510987FD5395440F551F440F551FA41730
:1001C000B5078CF08091EA0128E532E0281B31095F
:1001D00087FD3395220F331F220F331FAD012A17DE
:1001E0003B070CF4A90142505109440F551F2FB78A
:1001F000F894892F90E0FC01EE0FFF1F8E0F9F1FD8
:10020000FC01ED53FE4F528341832FBFFF90EF90CF
:10021000DF90CF900895CF92DF92EF92FF920F93ED
:100220001F93CF93DF936C017A018B01C0E0D0E084
:10023000CE15DF0589F0D8016D918D01D601ED91C4
:10024000FC910190F081E02DC6010995892B11F4F4
:100250007E0102C02196ECCFC701DF91CF911F91A3
:100260000F91FF90EF90DF90CF900895FC01918D5A
:10027000828D981761F0828DDF01A80FB11D5D9608
:100280008C91928D9F5F9F73928F90E008958FEF76
:100290009FEF0895FC01918D828D981731F0828D2A
:1002A000E80FF11D858D90E008958FEF9FEF089581
:1002B000FC01918D228D892F90E0805C9F4F821BE5
:1002C00091098F739927089586E291E00E94580161
:1002D00021E0892B09F420E0822F0895FC01848D10
:1002E000DF01A80FB11DA35ABF4F2C91848D90E060
:1002F00001968F739927848FA689B7892C93A0893B
:10030000B1898C9180648C93938D848D981306C0F1
:100310000288F389E02D80818F7D80830895EF929C
:10032000FF920F931F93CF93DF93EC0181E0888FAF
:100330009B8D8C8D981305C0E889F989808185FD96
:1003400024C0F62E0B8D10E00F5F1F4F0F73112787
:10035000E02E8C8DE8120CC00FB607FCFACFE889AE
:10036000F989808185FFF5CFCE010E946E01F1CF22
:100370008B8DFE01E80FF11DE35AFF4FF0820B8FCA
:10038000EA89FB898081806207C0EE89FF896083EA
:10039000E889F98980818064808381E090E0DF9141
:1003A000CF911F910F91FF90EF900895CF93DF931E
:1003B000EC01888D8823C9F0EA89FB89808185FD5D
:1003C00005C0A889B9898C9186FD0FC00FB607FCBE
:1003D000F5CF808185FFF2CFA889B9898C9185FFFF
:1003E000EDCFCE010E946E01E7CFDF91CF9108954E
:1003F00080E090E0892B29F00E94640181110C9427
:100400000000089590E0FC01E859FF4F3491FC0191
:10041000EC55FF4F2491FC01E057FF4FE491EE2390
:1004200009F43BC0332339F1333091F038F43130E3
:10043000A9F0323001F584B58F7D12C0373091F0CC
:100440003830A1F03430B9F4809180008F7D03C042
:10045000809180008F77809380000DC084B58F7766
:1004600084BD09C08091B0008F7703C08091B00037
:100470008F7D8093B000F0E0EE0FFF1FE458FF4F38
:10048000A591B4918FB7F894EC91611103C02095B8
:100490002E2301C02E2B2C938FBF08953FB7F894C5
:1004A00080911E0190911F01A0912001B091210126
:1004B00026B5A89B05C02F3F19F00196A11DB11DBF
:1004C0003FBFBA2FA92F982F8827820F911DA11DFA
:1004D000B11DBC01CD0142E0660F771F881F991F37
:1004E0004A95D1F708958F929F92AF92BF920F9342
:1004F0001F93CF93DF93CDB7DEB7A1970FB6F894D4
:10050000DEBF0FBECDBF19A2423008F44AE08E0113
:100510000F5D1F4F842E912CA12CB12CA5019401AD
:100520000E943A06E62FB901CA0101501109EA30CA
:1005300014F4E05D01C0E95CD801EC93232B242B7B
:10054000252B61F70115110571F0F80101900020CC
:10055000E9F73197AF01401B510BB80186E291E0FA
:100560000E940B0102C080E090E0A1960FB6F894C3
:10057000DEBF0FBECDBFDF91CF911F910F91BF9016
:10058000AF909F908F9008950E9403061F920F9244
:100590000FB60F9211242F933F934F935F936F9356
:1005A0007F938F939F93AF93BF93EF93FF9386E2D5
:1005B00091E00E946E01FF91EF91BF91AF919F91E9
:1005C0008F917F916F915F914F913F912F910F90FC
:1005D0000FBE0F901F9018951F920F920FB60F929B
:1005E00011242F938F939F93EF93FF93E091360104
:1005F000F09137018081E0913C01F0913D0182FD55
:1006000012C0908180913F018F5F8F7320914001D4
:10061000821751F0E0913F01F0E0EA5DFE4F958FC7
:1006200080933F0101C08081FF91EF919F918F9155
:100630002F910F900FBE0F901F9018951F920F9241
:100640000FB60F9211242F933F938F939F93AF93E5
:10065000BF9380911A0190911B01A0911C01B09150
:100660001D013091190123E0230F2D3720F401964D
:10067000A11DB11D05C026E8230F0296A11DB11DC5
:100680002093190180931A0190931B01A0931C01E0
:10069000B0931D0180911E0190911F01A091200136
:1006A000B09121010196A11DB11D80931E0190936F
:1006B0001F01A0932001B0932101BF91AF919F91A1
:1006C0008F913F912F910F900FBE0F901F90189513
:1006D0001F920F920FB60F9211242F933F934F93B7
:1006E0005F936F937F938F939F93AF93BF93EF939A
:1006F000FF938091180187FF05C01092850010922A
:1007000084001BC020911801022E000C330B809135
:10071000E70190E02817390784F480911801082E2A
:10072000000C990BFC01EE0FFF1F8E0F9F1FFC01A9
:10073000ED53FE4F808186FD15C0809118018F5FBB
:100740008093180120911801022E000C330B809128
:10075000E70190E028173907C4F4809118018C3024
:1007600064F113C080911801082E000C990BFC0154
:10077000EE0FFF1F8E0F9F1FFC01ED53FE4F808178
:1007800060E08F730E940202D8CF80918400909124
:100790008500049680349C4918F480E49CE905C0E7
:1007A00080918400909185000496909389008093B5
:1007B00088008FEF809318013BC020918400309116
:1007C000850080911801082E000C990BFC01EE0F9A
:1007D000FF1F8E0F9F1FFC01ED53FE4F8181928101
:1007E000820F931F90938900809388008091180155
:1007F000082E000C990BFC01EE0FFF1F8E0F9F1FA0
:10080000FC01ED53FE4F808186FF12C080911801DC
:10081000082E000C990BFC01EE0FFF1F8E0F9F1F7F
:10082000FC01ED53FE4F808161E08F730E94020254
:10083000FF91EF91BF91AF919F918F917F916F91B8
:100840005F914F913F912F910F900FBE0F901F908E
:100850001895109229011092280188EE93E0A0E0EB
:10086000B0E080932A0190932B01A0932C01B093C8
:100870002D0188E091E0909327018093260185EC7B
:1008800090E0909333018093320184EC90E0909358
:1008900035018093340180EC90E090933701809390
:1008A000360181EC90E0909339018093380182EC1D
:1008B00090E090933B0180933A0186EC90E0909316
:1008C0003D0180933C0110923F0110924001109233
:1008D0004101109242018091E7018C30A0F491E037
:1008E000980F9093E7018093E80190E0FC01EE0FF0
:1008F000FF1F8E0F9F1FFC01ED53FE4F88EB9BE007
:100900009283818308958FEF8093E801089578940E
:1009100084B5826084BD84B5816084BD85B5826004
:1009200085BD85B5816085BD80916E0081608093B5
:100930006E0010928100809181008260809381001E
:10094000809181008160809381008091800081602E
:10095000809380008091B10084608093B100809189
:10096000B00081608093B00080917A0084608093B1
:100970007A0080917A00826080937A0080917A0078
:10098000816080937A0080917A00806880937A00F9
:100990001092C1008091E8018C3008F068C0ECEA48
:1009A000F0E02491E8E9F0E08491882399F090E068
:1009B000880F991FFC01EA57FF4FA591B491FC01E4
:1009C000E458FF4F859194918FB7F894EC91E22B06
:1009D000EC938FBF8091E801E82FF0E09F01220F98
:1009E000331FE20FF31FED53FE4F9081907C986010
:1009F00090831092E9011092EA016CE00E94F105E7
:100A00002CE0829FB001112440E050E09A01260FB3
:100A1000371FF901EE0FFF1F2E0F3F1FF901ED5396
:100A2000FE4F908196FD16C04F5F5F4F4C305105D1
:100A300069F781110FC01092800082E080938100DD
:100A40001092850010928400B19A80916F008260AC
:100A500080936F00E091E801F0E0CF01880F991FCB
:100A6000E80FF91FED53FE4F808180648083E09191
:100A70003601F091370182E08083E0913201F091FC
:100A800033011082E0913401F09135018FEC8083C5
:100A900010923E01E0913A01F0913B0186E08083A3
:100AA000E0913801F0913901808180618083E0918B
:100AB0003801F0913901808188608083E0913801AC
:100AC000F0913901808180688083E0913801F09154
:100AD000390180818F7D8083C1E0D0E08091240145
:100AE00090912501E0902201F0902301892B99F447
:100AF000C7010E94870084EBE816F10421F4D0932B
:100B00002501C09324019FEFE91AF90AF09223010D
:100B1000E092220112C0C7010E9487008091220149
:100B200090912301009721F4109225011092240145
:100B300001979093230180932201C0902201D090CD
:100B400023010D2C000CEE08FF08F7FE14C0E09105
:100B50002601F09127010190F081E02D6DE286E2FF
:100B600091E0099566277727CB016C197D098E09DD
:100B70009F094AE003C04AE0C701B6010E94730220
:100B800042E050E064E171E086E291E00E940B01F6
:100B90000E944E024B015C0184E6C82ED12CE12C50
:100BA000F12C0E944E02DC01CB0188199909AA0997
:100BB000BB09883E9340A105B10558F021E0C21A57
:100BC000D108E108F10888EE880E83E0981EA11C88
:100BD000B11CC114D104E104F10419F70E94F80119
:100BE0007DCF991B79E004C0991F961708F0961BDA
:100BF000881F7A95C9F780950895EE0FFF1F05901D
:100C0000F491E02D099481E090E0F8940C946B0647
:100C1000052E97FB1EF400940E941F0657FD07D077
:100C20000E943A0607FC03D04EF40C941F06509520
:100C30004095309521953F4F4F4F5F4F08959095C8
:100C40008095709561957F4F8F4F9F4F08950E94BB
:100C50005C06A59F900DB49F900DA49F800D911DE3
:100C600011240895B7FF0C9427060E942706821BC3
:100C7000930B0895A1E21A2EAA1BBB1BFD010DC008
:100C8000AA1FBB1FEE1FFF1FA217B307E407F5073C
:100C900020F0A21BB30BE40BF50B661F771F881F18
:100CA000991F1A9469F760957095809590959B01AE
:100CB000AC01BD01CF010895A29FB001B39FC00157
:100CC000A39F700D811D1124911DB29F700D811D78
:0A0CD0001124911D0895F894FFCF40
:100CDA0001000000000000008F010B0158013601DD
:080CEA004A01D6010D0A0000C9
:00000001FF
